:10000000980800203D110000A1110000A11100007E
:1000100000000000000000000000000000000000E0
:10002000000000000000000000000000A11100001E
:100030000000000000000000A1110000A11100005C
:10004000A1110000A1110000A1110000A1110000E8
:10005000A111000000000000A1110000A11100008A
:10006000A1110000A1110000A1110000A1110000C8
:10007000B1130000A1110000A11100000000000058
:100080000000000000000000A1110000A11100000C
:10009000A1110000000000000000000000000000AE
:1000A0000000000000000000000000000000000050
:1000B000A1110000A111000000000000A11100002A
:1000C00010B5064C2378002B07D1054B002B02D02E
:1000D000044800E000BF0123237010BD6804002025
:1000E0000000000074530000084B10B5002B03D033
:1000F0000749084800E000BF07480368002B00D10B
:1001000010BD064B002BFBD09847F9E7000000001C
:100110006C04002074530000640400200000000000
:1001200080B588B000AF0023BB613A1D234B10009F
:10013000190004231A0004F0D5FF214B1B6A7B61D0
:100140007A69A023DB02134001D0002331E07A69F1
:1001500080231B03134002D01A4BFB6101E01A4BB2
:10016000FB617A6980239B02134001D0FB6920E088
:100170007B699B0B032213403A1DD35C3B617B6977
:10018000DB05DB0D0233FB607B695B0A1F2213403A
:100190000233BB60FB699B08FA685A431000BB68D6
:1001A0003A695343190004F011FF03009B00BB613F
:1001B000BB691800BD4608B080BDC046345300007E
:1001C0000002005000805101001BB70080B584B0D0
:1001D00000AFFFF7A5FF0200184B1A60184B1B6910
:1001E00007221340BB60BB68022B05D0154BBA68D1
:1001F0009200D358FB6002E0104B1B68FB60104B71
:100200009B690F22134001337B607968F86804F022
:10021000DDFE03001A000C4B1A600B4B1B680B4AE7
:10022000944663440A49180004F0D0FE03001A0003
:10023000084B1A60C046BD4604B080BD08000020CF
:10024000000200500C0000200000002020A1070048
:1002500040420F000400002080B500AFC046BD46FC
:1002600080BDC04680B582B000AF0200FB1D1A7091
:10027000064BFA1D127811001F220A4001219140FD
:100280000A001A60C046BD4602B080BD00E100E031
:1002900080B582B000AF0200FB1D1A70074AFB1D3B
:1002A0001B7819001F230B40012199400B001900F6
:1002B0008023D150C046BD4602B080BD00E100E0C1
:1002C00080B588B000AF0023BB613A1D234B1000FE
:1002D000190004231A0004F005FF214B1B6A7B61FF
:1002E0007A69A023DB02134001D0002331E07A6950
:1002F00080231B03134002D01A4BFB6101E01A4B11
:10030000FB617A6980239B02134001D0FB6920E0E6
:100310007B699B0B032213403A1DD35C3B617B69D5
:10032000DB05DB0D0233FB607B695B0A1F22134098
:100330000233BB60FB699B08FA685A431000BB6834
:100340003A695343190004F041FE03009B00BB616E
:10035000BB691800BD4608B080BDC04638530000D8
:100360000002005000805101001BB70080B582B030
:1003700000AF786039603A688023DB00134005D015
:100380007B6860229A617B6808229A613A688023C0
:100390001B01134005D07B685B6901221A437B680F
:1003A0005A613A6880239B01134002D07B68114A4E
:1003B0009A613A6880235B02134003D07B688022F5
:1003C0005202DA613A6880239B02134003D07B68B3
:1003D00080229202DA613A6880231B02134005D022
:1003E0007B688022DA617B68034A9A63C046BD4617
:1003F00002B080BD010000010F03000080B582B093
:1004000000AF78607B6800225A60C046BD4602B0EB
:1004100080BDC04680B582B000AF78607B685B6805
:10042000034A1A407B685A60C046BD4602B080BD90
:10043000FFCFFFFF80B582B000AF786039607B6886
:100440005B683A68D2431A407B685A607B68174AF7
:10045000934203D10C20FFF71BFF22E07B68144A74
:10046000934203D10D20FFF713FF1AE07B68114A76
:10047000934203D10C20FFF70BFF12E07B680E4A7A
:10048000934203D10F20FFF703FF0AE07B680B4A7A
:10049000934203D11020FFF7FBFE02E01120FFF78B
:1004A000F7FEC046BD4602B080BDC0460000054014
:1004B0000000154000401540004005400080054008
:1004C00080B582B000AF78607B681B6980229200A3
:1004D0001A437B681A617B685B69802252001A4369
:1004E0007B685A617B685B68C02292011A437B6813
:1004F0005A60C046BD4602B080BDC04680B582B0DD
:1005000000AF786039607B685A683B681A437B6843
:100510005A607B68164A934203D10C20FFF7A2FE73
:1005200022E07B68134A934203D10D20FFF79AFE25
:100530001AE07B68104A934203D10C20FFF792FE29
:1005400012E07B680D4A934203D10F20FFF78AFE29
:100550000AE07B680A4A934203D11020FFF782FE2B
:1005600002E01120FFF77EFEC046BD4602B080BD0E
:1005700000000540000015400040154000400540C7
:100580000080054090B589B000AF786039600823DD
:10059000FB183F4A13CA13C312681A600023FB6199
:1005A0003C4B5A69C0239B0413401A0E1B23FB18B3
:1005B0001A70384B9A69F0231B0113401A0A1A2348
:1005C000FB181A707B6800221A637B680322DA60CA
:1005D0007B689B68304A1A407B689A601B23FB1833
:1005E0001B78012B09D11B23FB181C78FFF768FE31
:1005F00001000823FB18A200D1503B68002B42D019
:100600001B23FB181A780823FB189200D2581A23D0
:10061000FB181B7801331900100004F0D7FC03000D
:100620001A003B685B08D3183968180004F0CEFC48
:100630000300023BFB61FB69184A93421DD91B234F
:10064000FB181A780823FB189200D2581A23FB18BB
:100650001B7801331900100004F0B8FC03001A00E5
:100660003B68DB00D3183968180004F0AFFC0300C6
:100670001B099A1E7B685A6205E0FB69C02292053D
:100680001A437B685A62C046BD4609B090BDC04659
:100690003C530000000200500FFFF0FFFFFF00007E
:1006A00080B586B000AFF860B9607A6000237B61E6
:1006B0001BE000233B6108E03B6901333B613B6980
:1006C0000E4A934201D9002314E0FB689A69802303
:1006D000DB011340F0D1BA687B69D218FB681B6854
:1006E000DBB213707B6901337B617A697B689A4264
:1006F000DFD37B691800BD4606B080BDFFFFFF3F1A
:1007000090B58BB000AFF860B9607A603B601023A1
:10071000FB183C4A13CA13C312681A6000237B6299
:10072000394B5A69C0239B0413401A0E2323FB182C
:100730001A70354B9A69F0231B0113401A0A2223C1
:10074000FB181A702323FB181B78012B09D12323D4
:10075000FB181C78FFF7B4FD01001023FB18A20062
:10076000D150BB68002B42D02323FB181A781023EA
:10077000FB189200D2582223FB181B780133190072
:10078000100004F023FC03001A00BB685B08D318B8
:10079000B968180004F01AFC0300023B7B627B6A14
:1007A0001A4A93421DD92323FB181A781023FB18E9
:1007B0009200D2582223FB181B7801331900100035
:1007C00004F004FC03001A00BB68DB00D318B9680E
:1007D000180004F0FBFB03001B099A1EFB685A6219
:1007E00005E07B6AC02292051A43FB685A627A6868
:1007F0003B681A43BB6B1A43FB68DA60C046BD46D0
:100800000BB090BD3C53000000020050FFFF000001
:1008100080B582B000AF786039607B681B6AFF22C8
:1008200093431A003B681A437B681A627B685B68D3
:10083000802212011A437B685A60C046BD4602B04E
:1008400080BDC04690B58BB000AFF860B9607A60EB
:100850001023FB18384A13CA13C312681A60FB68C6
:1008600002221A63354B5A69C0239B0413401A0EA7
:100870002723FB181A70314B9A69F0231B01134090
:100880001A0A2623FB181A702723FB181B78012B42
:1008900009D12723FB181C78FFF712FD0100102354
:1008A000FB18A200D150BB68002B22D02723FB18D5
:1008B0001A781023FB189200D2582623FB181B78B5
:1008C00001331900100004F081FB03001A00BB681B
:1008D000DB00D318B968180004F078FB03001B098B
:1008E000023B3B623B6A164A934202D8FB683A6A73
:1008F0005A627B68002B0DD1FB689B6A40221A4329
:10090000FB689A62FB689B6A022293431A00FB68A9
:100910009A620CE0FB689B6A202293431A00FB68F2
:100920009A62FB689B6A02221A43FB689A62C0467D
:10093000BD460BB090BDC0463C53000000020050C5
:10094000FEFF000080B584B000AFF860B9607A6047
:10095000FB6803221A63FB68DB6A084A1A40FB68DB
:10096000DA62FB68DA6A7B681906BB680B431A43D4
:10097000FB68DA62C046BD4604B080BDFFF8FF00E8
:1009800080B584B000AFF860B9607A60FB6801227E
:100990001A63FB68DB6A8F2293431A00FB68DA62F2
:1009A000FB68DA6AB9687B680B431A43FB68DA6252
:1009B000C046BD4604B080BD80B586B000AFF860CB
:1009C000B9607A6000237B611BE000233B6108E093
:1009D0003B6901333B613B690E4A934201D90023D5
:1009E00014E0FB689A6980235B051340F0D0BA6875
:1009F0007B69D3181B781A00FB681A607B69013386
:100A00007B617A697B689A42DFD17B691800BD46B9
:100A100006B080BDFFFFFF3F80B588B000AF002368
:100A2000BB613A1D234B1000190004231A0004F087
:100A300059FB214B1B6A7B617A69A023DB021340BF
:100A400001D0002331E07A6980231B03134002D0D8
:100A50001A4BFB6101E01A4BFB617A6980239B0210
:100A6000134001D0FB6920E07B699B0B03221340FC
:100A70003A1DD35C3B617B69DB05DB0D0233FB6018
:100A80007B695B0A1F2213400233BB60FB699B0832
:100A9000FA685A431000BB683A695343190004F0DE
:100AA00095FA03009B00BB61BB691800BD4608B006
:100AB00080BDC0464C530000000200500080510130
:100AC000001BB70080B500AF034B180000F0EEF933
:100AD000C046BD4680BDC0460600206680B584B0D5
:100AE00000AFF860B9607A600A4B7A685101BA6861
:100AF0000A4310210A435A62074B180000F0A8F974
:100B0000FB6805480022190000F00EF9C046BD46FA
:100B100004B080BD000200500600206680B500AF22
:100B2000084B084A126904210A431A61064B064A17
:100B30001268C02149000A431A6030BFC046BD4652
:100B400080BDC04600ED00E00002005080B500AF5F
:100B5000074B074A126904218A431A61054B054A6B
:100B6000126880218A431A6030BFC046BD4680BDEE
:100B700000ED00E00002005080B500AF054B1B689F
:100B80000122134001D0044B00E000231800BD46B1
:100B900080BDC04600020050001BB70080B500AF0A
:100BA000FFF714FB024B1B681800BD4680BDC04612
:100BB0000000002080B500AFFFF708FB024B1B6868
:100BC0001800BD4680BDC0460000002080B500AFC3
:100BD000FFF7FCFA024B1B681800BD4680BDC046FB
:100BE0000000002080B584B000AF78602A4BDB683D
:100BF00010221340FB607B68284A934201D9274B9F
:100C00007B607B68264A934201D8264B7B60224B4F
:100C1000214A126804210A431A60102000F070FA79
:100C20001D4B1D4A126907210A431A611A4B1A4AC1
:100C300092690F218A439A61174B1B680122134066
:100C400008D07B685B001900002000F05FF903000A
:100C50007B600EE07B685A0080231B0311001800A4
:100C600000F054F903007B600B4BDB68102213404B
:100C7000FB600121022000F017F8FB68002B05D172
:100C8000054B054A126804218A431A607B685B0899
:100C90001800BD4604B080BD0002005080F0FA028A
:100CA0003F787D0140787D0180B584B000AF7860E9
:100CB00039601C4BDB6810221340FB60194B194A4A
:100CC000126804210A431A60C046164BDB681022E2
:100CD0001340FAD0134B134A126907210A431A61D1
:100CE000104B104A92690F218A4311003A680A4357
:100CF0009A610C4B0B4A126907218A4311007A68EA
:100D00000A431A61FFF762FAFB68002B05D1054B15
:100D1000044A126810218A431A60C046BD4604B0D6
:100D200080BDC0460002005090B58BB000AFF860A7
:100D3000B9607A6000237B6200233B621023FB18BA
:100D4000254A13CA13C312681A60FB689B0AFF2264
:100D500013401AD0FB689B0C032213401F4A944691
:100D600063449B003B623B6A3A6A1268F968890AED
:100D7000FF200840F96849091F24214088400100EC
:100D8000C94311407A680A431A60FB685B0E072268
:100D900013401DD0FB681B0F03221A401023FB18C1
:100DA0009200D3580E4A944663447B627B6A7A6A07
:100DB0001268F968490E07200840F968090D1F24D8
:100DC000214088400100C9431140BA680A431A60B3
:100DD000C046BD460BB090BD5053000086000014C5
:100DE0001002005080B582B000AF7860064B064A12
:100DF000126938218A4311007A680A431A61C04691
:100E0000BD4602B080BDC0460002005080B582B031
:100E100000AF7860044B044A11687A680A431A608C
:100E2000C046BD4602B080BD0002005080B582B011
:100E300000AF7860054B054A12687968C9430A40DB
:100E40001A60C046BD4602B080BDC04600020050D8
:100E500090B587B000AF78600823FB18114A13CA19
:100E600013C312681A607B689A0F0823FB1892005C
:100E7000D3580D4A944663447A68910F0822BA18F1
:100E800089008A5808498C466244126879681F2094
:100E900001400120884001000A431A60C046BD4657
:100EA00007B090BD605300000402005090B587B0B9
:100EB00000AF78600823FB18124A13CA13C31268E4
:100EC0001A607B689A0F0823FB189200D3580E4AC9
:100ED000944663447A68910F0822BA1889008A58A8
:100EE00009498C466244126879681F20014001203C
:100EF00088400100C9430A401A60C046BD4607B099
:100F000090BDC046605300000402005080B58EB012
:100F100000AF78603960664B802252021A627B68AB
:100F2000002B0FD1624B624A126801210A431A60FA
:100F3000012000F0E5F800237B625E4B7B63022317
:100F40003B630FE05A4B5A4A126804210A431A6065
:100F5000102000F0D5F880231B037B62564B7B6387
:100F600004233B633B68554A934206D83B68544A86
:100F7000934202D90023BB621CE03B68504A934273
:100F800009D83B684F4A934205D90123BB623B68AD
:100F90005B003B600EE03B684A4A934200D973E035
:100FA0003B68494A934200D86EE00323BB623B682A
:100FB0009B003B6001235B423B620023BB6100233B
:100FC000FB6141E0396B786B04F000F803007B6152
:100FD0007B693E4A934234D97B693D4A934230D87B
:100FE0000223FB6227E07B69FA6A53433B613B695A
:100FF000384A93421CD93B69304A934218D83A691F
:101000003B689A4203D93A693B68D31A02E03A68CE
:101010003B69D31AFB60FA683B6A9A4208D2FB68C4
:101020003B623B6BBB61FB6AFB613B6A002B07D0F9
:10103000FB6A0133FB62FB6A274A9342D3D900E083
:10104000C0463B6B01333B633B6B212BBAD9184B3A
:10105000BA6A91037A6A1143BA69023A5202114399
:10106000FA69023A0A431A62042000F049F8BB6A9E
:101070000133BA6953431900786B03F0A7FF0300EB
:101080001A00FB6953430FE07B68002B03D1084B28
:10109000124A1A6202E0064B114A1A62042000F05A
:1010A0002FF8FFF7B9FC03001800BD460EB080BD55
:1010B00000020050001BB7000080510100C2EB0B82
:1010C00000E1F50580F0FA023F787D01006A180022
:1010D000BFE1E400FFE0F505010200002EC20000C0
:1010E0006FD6000080B500AF044B044A126A80211D
:1010F00049020A431A62C046BD4680BD0002005044
:1011000080B584B000AF78600A4BFB6006E0FB68F6
:101110005A1EFA60002B01DC002307E0064BDB6857
:101120007A681A407B689A42F1D101231800BD46C3
:1011300004B080BD804F12000002005080B582B024
:1011400000AF124B7B60124B3B6007E03B681A1DFF
:101150003A607A68111D796012681A603A680D4B1E
:101160009A42F3D30C4B3B6004E03B681A1D3A6093
:1011700000221A603A68094B9A42F6D3FFF76CF8DE
:1011800003F0D8FEC046BD4602B080BD74530000D7
:10119000000000206804002068040020940400205F
:1011A00080B500AFFEE7C04680B582B000AF786082
:1011B000A023DB05A022D20551687A680A435A6051
:1011C000C046BD4602B080BD80B500AFA023DB05A0
:1011D0009B69402213405A1E9341DBB21800BD4662
:1011E00080BDC04680B500AFA023DB055B6818005A
:1011F000BD4680BD80B500AFA023DA0580235B002B
:10120000D358012213405A425341DBB21800BD4665
:1012100080BDC04680B500AFA023DB051B68180069
:10122000BD4680BD80B500AFA023DB05A022D2055E
:10123000926801210A439A60C046BD4680BDC046FF
:1012400080B500AFA023DB05A022D2059268022161
:101250000A439A60C046BD4680BDC04680B582B094
:1012600000AF78607B681B0E144A944663447A682A
:10127000120E12498C466244126879680902090A02
:101280000120884001000A431A607B681B0E0B4A4C
:10129000944663447A68120E08498C466244126888
:1012A00079680902090A012088400100C9430A40FF
:1012B0001A60C046BD4602B080BDC046080000505E
:1012C00080B582B000AF78603960A023DB05A02232
:1012D000D205926901210A439A61A023DB05A0226D
:1012E000D205926908218A4311007A680A439A61FB
:1012F000A023DB05A022D205926906218A431100B2
:101300003A680A439A61C046BD4602B080BDC046F5
:1013100080B500AFA023DB05A022D2059269012190
:101320008A439A61C046BD4680BDC04680B582B042
:1013300000AF0200FB1D1A70064BFA1D1278110057
:101340001F220A40012191400A001A60C046BD4692
:1013500002B080BD00E100E080B500AFA023DA0557
:1013600080235B000021D150C046BD4680BDC046F1
:1013700080B500AF11E0A023DA0580235B0059217E
:10138000D150A023DA0580235B001621D150A02381
:10139000DA0580235B008821D150A023DA05802361
:1013A0005B00D358012BE6D1C046BD4680BDC04688
:1013B00080B584B000AF114BDB69FB603B1D0022A0
:1013C0001A700023BB600D4BDB69FA6813400122E1
:1013D00013400FD03B1D094801221900FFF760F9A7
:1013E0003B1D1B78BB60064BBA681A60044B1A6839
:1013F000044B1A60C046BD4604B080BD00000540E5
:10140000880400209004002080B582B000AF002343
:101410007B6000233B6000237B6004E000233B6093
:101420007B6801337B607B68034A9342F6DDC046EC
:10143000BD4602B080BDC0468713000080B582B0B3
:1014400000AF00237B6000233B6000237B6004E04F
:10145000064B3B607B6801337B607B68044A9342A8
:10146000F6DDC046BD4602B080BDC046E7030000C1
:10147000DF93040080B582B000AF00237B600023BF
:101480003B6000237B6004E0064B3B607B680133DC
:101490007B607B68044A9342F6DDC046BD4602B0DD
:1014A00080BDC046E70300003F420F0080B500AF9B
:1014B0000420FFF7ABFC1020FFF722FE00210720DD
:1014C000FFF7F2FB0120FFF7A1FC0120FFF718FE58
:1014D000214B1800FFF786FB204B0022002118004B
:1014E000FFF722FC1D4B1800FFF7B2FC1C4B180045
:1014F000FFF7B4FE1B4B002200211800FFF714FC7D
:10150000184B1800FFF7A4FC174B1800FFF7A6FEB6
:10151000A023DB05A022D205526B03218A435A6324
:10152000A023DB05A022D205526B03210A435A6394
:10153000A023DB05A022D205126B03218A431A6384
:10154000A023DB05A022D205126B03210A431A63F4
:10155000C046BD4680BDC04680F0FA02103D8057AF
:10156000100000040A3D80970A00000880B500AF13
:10157000054B1800FEF742FF044B1800FEF73EFF34
:10158000C046BD4680BDC0460000054000801540F5
:1015900080B500AFE1235B020F4A19001000FEF78F
:1015A000F1FF0D4B01211800FEF7A8FF0C20FFF7FB
:1015B000BDFE96239B01094A19001000FEF7E2FFC9
:1015C000064B01211800FEF799FF1120FFF7AEFE30
:1015D000C046BD4680BDC0460000054000801540A5
:1015E00080B584B000AF78600023FB600B23FB184C
:1015F00002221A7010E00B23FB181B787A68D318AC
:101600001B781A00FB689B18FB600B23FB181A78E9
:101610000B23FB1801321A700B23FB181A787B6816
:1016200003331B7802339A42E5DBFB68DB43FB6044
:101630000B23FB18FA681A700B23FB181B78180091
:10164000BD4604B080BDC04680B598B000AF5423FD
:10165000FB1818000A231A00002103F081FD48231B
:10166000FB1818000A231A00002103F079FD3C231F
:10167000FB1818000A231A00002103F071FD302323
:10168000FB1818000A231A00002103F069FD242327
:10169000FB1818000A231A00002103F061FD18232B
:1016A000FB1818000A231A00002103F059FD0C232F
:1016B000FB1818000A231A00002103F051FD3B001B
:1016C00018000A231A00002103F04AFDD34B002220
:1016D0001A605423FB1855221A705423FB18552204
:1016E0005A705423FB1801229A705423FB180722C6
:1016F000DA705423FB1801221A715423FB18F422C8
:101700005A715423FB1801229A715423FB180022AA
:10171000DA715423FB1800221A725423FB181800A4
:10172000FFF75EFF03001A005423FB185A7254237C
:10173000FB18BB480A221900FFF73EF93C23FB18AF
:1017400055221A703C23FB1855225A703C23FB1873
:1017500003229A703C23FB180722DA703C23FB1803
:1017600001221A713C23FB18F4225A713C23FB1806
:1017700001229A713C23FB180022DA713C23FB18EA
:1017800000221A723C23FB181800FFF729FF030000
:101790001A003C23FB185A723C23FB18A0480A226B
:1017A0001900FFF709F90C23FB1855221A700C23B6
:1017B000FB1855225A700C23FB1807229A700C2331
:1017C000FB180722DA700C23FB1801221A710C2374
:1017D000FB18F4225A710C23FB1801229A710C2376
:1017E000FB180022DA710C23FB1800221A720C235A
:1017F000FB181800FFF7F4FE03001A000C23FB1877
:101800005A720C23FB1886480A221900FFF7D4F8F5
:101810002423FB1855221A702423FB1855225A70D2
:101820002423FB1805229A702423FB180722DA7060
:101830002423FB1801221A712423FB18F4225A7165
:101840002423FB1801229A712423FB180022DA7149
:101850002423FB1800221A722423FB181800FFF718
:10186000BFFE03001A002423FB185A722423FB181E
:101870006B480A221900FFF79FF8FFF7DFFD4823A6
:10188000FB1855221A704823FB1855225A7048231A
:10189000FB1802229A704823FB180722DA704823AB
:1018A000FB1801221A714823FB18F4225A714823AD
:1018B000FB1801229A714823FB180022DA71482391
:1018C000FB1800221A724823FB181800FFF788FE45
:1018D00003001A004823FB185A724823FB1850488B
:1018E0000A221900FFF768F83023FB1855221A70F6
:1018F0003023FB1855225A703023FB1804229A70AB
:101900003023FB180722DA703023FB1801221A71EA
:101910003023FB18F4225A713023FB1801229A71EC
:101920003023FB180022DA713023FB1800221A72D0
:101930003023FB181800FFF753FE03001A00302372
:10194000FB185A723023FB1835480A221900FFF79A
:1019500033F83B0055221A703B0055225A703B0069
:1019600008229A703B000722DA703B0001221A71AC
:101970003B00F4225A713B0001229A713B00002285
:10198000DA713B0000221A723B001800FFF728FEB4
:1019900003001A003B005A723B0021480A2219003A
:1019A000FFF70AF81823FB1855221A701823FB18A2
:1019B00055225A701823FB1806229A701823FB1818
:1019C0000722DA701823FB1801221A711823FB185A
:1019D000F4225A711823FB1801229A711823FB185C
:1019E0000022DA711823FB1800221A721823FB1840
:1019F0001800FFF7F5FD03001A001823FB185A72B0
:101A00001823FB1806480A221900FEF7D5FFFFF736
:101A100015FDC046BD4618B080BDC04690040020EC
:101A20000000054080B598B000AF5423FB181800A3
:101A30000A231A00002103F093FB4823FB18180027
:101A40000A231A00002103F08BFB3C23FB1818002B
:101A50000A231A00002103F083FB3023FB1818002F
:101A60000A231A00002103F07BFB2423FB18180033
:101A70000A231A00002103F073FB1823FB18180037
:101A80000A231A00002103F06BFB0C23FB1818003B
:101A90000A231A00002103F063FB3B0018000A230D
:101AA0001A00002103F05CFBFE4B00221A600C239D
:101AB000FB1855221A700C23FB1855225A700C2360
:101AC000FB1807229A700C23FB180722DA700C23EC
:101AD000FB1801221A710C23FB1858225A710C238F
:101AE000FB1802229A710C23FB180022DA710C23D6
:101AF000FB1800221A720C23FB181800FFF770FD68
:101B000003001A000C23FB185A720C23FB18E6483A
:101B10000A221900FEF750FF2423FB1855221A70E1
:101B20002423FB1855225A702423FB1805229A708F
:101B30002423FB180722DA702423FB1801221A71D0
:101B40002423FB1858225A712423FB1802229A716D
:101B50002423FB180022DA712423FB1800221A72B6
:101B60002423FB181800FFF73BFD03001A00242371
:101B7000FB185A722423FB18CB480A221900FEF7DF
:101B80001BFF1823FB1855221A701823FB18552227
:101B90005A701823FB1806229A701823FB18072284
:101BA000DA701823FB1801221A711823FB1864221B
:101BB0005A711823FB1800229A711823FB1800226F
:101BC000DA711823FB1800221A721823FB18180068
:101BD000FFF706FD03001A001823FB185A7218239A
:101BE000FB18B1480A221900FEF7E6FE3B00552219
:101BF0001A703B0055225A703B0008229A703B0035
:101C00000722DA703B0001221A713B0084225A71CC
:101C10003B0003229A713B000022DA713B00002254
:101C20001A723B001800FFF7DBFC03001A003B00B0
:101C30005A723B009C480A221900FEF7BDFEFFF7CE
:101C4000FDFB5423FB1855221A705423FB18552210
:101C50005A705423FB1801229A705423FB18072250
:101C6000DA705423FB1801221A715423FB18F42252
:101C70005A715423FB1801229A715423FB18002235
:101C8000DA715423FB1800221A725423FB1818002F
:101C9000FFF7A6FC03001A005423FB185A725423C2
:101CA000FB1881480A221900FEF786FEFFF7C6FBE3
:101CB0004823FB1855221A704823FB1855225A70E6
:101CC0004823FB1802229A704823FB180722DA7077
:101CD0004823FB1801221A714823FB18F4225A7179
:101CE0004823FB1801229A714823FB180022DA715D
:101CF0004823FB1800221A724823FB181800FFF72C
:101D00006FFC03001A004823FB185A724823FB1883
:101D100065480A221900FEF74FFEFFF78FFB542398
:101D2000FB1855221A705423FB1855225A7054235D
:101D3000FB1801229A705423FB180722DA705423EF
:101D4000FB1801221A715423FB1858225A7154238C
:101D5000FB1802229A715423FB180022DA715423D3
:101D6000FB1800221A725423FB181800FFF738FCE6
:101D700003001A005423FB185A725423FB184A48D4
:101D80000A221900FEF718FEFFF758FB2423FB1860
:101D900055221A702423FB1855225A702423FB184D
:101DA00005229A702423FB180722DA702423FB18DB
:101DB00001221A712423FB18F4225A712423FB18E0
:101DC00001229A712423FB180022DA712423FB18C4
:101DD00000221A722423FB181800FFF701FC0300ED
:101DE0001A002423FB185A722423FB182E480A22B7
:101DF0001900FEF7E1FDFFF721FB3C23FB185522FC
:101E00001A703C23FB1855225A703C23FB180322FE
:101E10009A703C23FB180722DA703C23FB1801223E
:101E20001A713C23FB18F4225A713C23FB1801223F
:101E30009A713C23FB180022DA713C23FB18002224
:101E40001A723C23FB181800FFF7CAFB03001A00A4
:101E50003C23FB185A723C23FB1813480A22190032
:101E6000FEF7AAFDFFF7EAFA3023FB1855221A7095
:101E70003023FB1855225A703023FB1804229A7025
:101E80003023FB180722DA703023FB1801221A7165
:101E90003023FB1864225A713023FB1800229A71F8
:101EA00004E0C04690040020000005403023FB18E9
:101EB0000022DA713023FB1800221A723023FB183B
:101EC0001800FFF78DFB03001A003023FB185A722D
:101ED0003023FB1871480A221900FEF76DFDFFF749
:101EE000ADFA3C23FB1855221A703C23FB185522EF
:101EF0005A703C23FB1803229A703C23FB180722DC
:101F0000DA703C23FB1801221A713C23FB1858227B
:101F10005A713C23FB1802229A713C23FB180022C1
:101F2000DA713C23FB1800221A723C23FB181800BC
:101F3000FFF756FB03001A003C23FB185A723C23A0
:101F4000FB1856480A221900FEF736FDFFF792FAF1
:101F50002423FB1855221A702423FB1855225A708B
:101F60002423FB1805229A702423FB180722DA7019
:101F70002423FB1801221A712423FB1858225A71BA
:101F80002423FB1802229A712423FB180022DA7101
:101F90002423FB1800221A722423FB181800FFF7D1
:101FA0001FFB03001A002423FB185A722423FB187A
:101FB0003A480A221900FEF7FFFCFFF73FFA4823D0
:101FC000FB1855221A704823FB1855225A704823D3
:101FD000FB1802229A704823FB180722DA70482364
:101FE000FB1801221A714823FB18F4225A71482366
:101FF000FB1801229A714823FB180022DA7148234A
:10200000FB1800221A724823FB181800FFF7E8FAA1
:1020100003001A004823FB185A724823FB181F4874
:102020000A221900FEF7C8FC3023FB1855221A704B
:102030003023FB1855225A703023FB1804229A7063
:102040003023FB180722DA703023FB1801221A71A3
:102050003023FB18F4225A713023FB1801229A71A5
:102060003023FB180022DA713023FB1800221A7289
:102070003023FB181800FFF7B3FA03001A003023CF
:10208000FB185A723023FB1804480A221900FEF785
:1020900093FCC046BD4618B080BDC0460000054058
:1020A00080B598B000AF5423FB1818000A231A001B
:1020B000002103F055F84823FB1818000A231A00E2
:1020C000002103F04DF83C23FB1818000A231A00E6
:1020D000002103F045F83023FB1818000A231A00EA
:1020E000002103F03DF82423FB1818000A231A00EE
:1020F000002103F035F81823FB1818000A231A00F2
:10210000002103F02DF80C23FB1818000A231A00F5
:10211000002103F025F83B0018000A231A000021D3
:1021200003F01EF8FE4B00221A600C23FB18552208
:102130001A700C23FB1855225A700C23FB18072227
:102140009A700C23FB180722DA700C23FB1801226B
:102150001A710C23FB1858225A710C23FB18022207
:102160009A710C23FB180022DA710C23FB18002251
:102170001A720C23FB181800FFF732FA03001A003A
:102180000C23FB185A720C23FB18E6480A2219008C
:10219000FEF712FC2423FB1855221A702423FB1887
:1021A00055225A702423FB1805229A702423FB1809
:1021B0000722DA702423FB1801221A712423FB184A
:1021C00058225A712423FB1802229A712423FB18E7
:1021D0000022DA712423FB1800221A722423FB1830
:1021E0001800FFF7FDF903001A002423FB185A72A8
:1021F0002423FB18CB480A221900FEF7DDFB182325
:10220000FB1855221A701823FB1855225A701823F0
:10221000FB1806229A701823FB180722DA7018237D
:10222000FB1801221A711823FB1864225A71182313
:10223000FB1800229A711823FB180022DA71182368
:10224000FB1800221A721823FB181800FFF7C8F9B0
:1022500003001A001823FB185A721823FB18B14800
:102260000A221900FEF7A8FB3B0055221A703B001A
:1022700055225A703B0008229A703B000722DA7000
:102280003B0001221A713B0084225A713B00032259
:102290009A713B000022DA713B0000221A723B0067
:1022A0001800FFF79DF903001A003B005A723B002B
:1022B0009C480A221900FEF77FFBFFF7BFF80C23AA
:1022C000FB1855221A700C23FB1855225A700C2348
:1022D000FB1807229A700C23FB180722DA700C23D4
:1022E000FB1801221A710C23FB18F4225A710C23DB
:1022F000FB1801229A710C23FB180022DA710C23BF
:10230000FB1800221A720C23FB181800FFF768F95B
:1023100003001A000C23FB185A720C23FB18814887
:102320000A221900FEF748FB5423FB1855221A70A5
:102330005423FB1855225A705423FB1801229A701B
:102340005423FB180722DA705423FB1801221A7158
:102350005423FB18F4225A715423FB1801229A715A
:102360005423FB180022DA715423FB1800221A723E
:102370005423FB181800FFF733F903001A00542305
:10238000FB185A725423FB1866480A221900FEF7FC
:1023900013FBFFF753F84823FB1855221A70482304
:1023A000FB1855225A704823FB1802229A704823C2
:1023B000FB180722DA704823FB1801221A71482300
:1023C000FB1884225A714823FB1803229A71482370
:1023D000FB180022DA714823FB1800221A724823E6
:1023E000FB181800FFF7FCF803001A004823FB183D
:1023F0005A724823FB184B480A221900FEF7DCFAF0
:10240000FFF71CF85423FB1855221A705423FB18AD
:1024100055225A705423FB1801229A705423FB183A
:102420000722DA705423FB1801221A715423FB1877
:1024300058225A715423FB1802229A715423FB1814
:102440000022DA715423FB1800221A725423FB185D
:102450001800FFF7C5F803001A005423FB185A723E
:102460005423FB182F480A221900FEF7A5FAFEF79D
:10247000E5FF0C23FB1855221A700C23FB1855227C
:102480005A700C23FB1807229A700C23FB180722A2
:10249000DA700C23FB1801221A710C23FB18582246
:1024A0005A710C23FB1802229A710C23FB1800228C
:1024B000DA710C23FB1800221A720C23FB18180087
:1024C000FFF78EF803001A000C23FB185A720C2336
:1024D000FB1814480A221900FEF76EFAFEF7AEFF49
:1024E0003C23FB1855221A703C23FB1855225A70C6
:1024F0003C23FB1803229A703C23FB180722DA7056
:102500003C23FB1801221A713C23FB18F4225A7158
:102510003C23FB1801229A713C23FB1804E0C046BF
:1025200090040020000005400022DA713C23FB18D3
:1025300000221A723C23FB181800FFF751F8030021
:102540001A003C23FB185A723C23FB1871480A22DC
:102550001900FEF731FAFEF771FF3023FB18552200
:102560001A703023FB1855225A703023FB180422AE
:102570009A703023FB180722DA703023FB180122EF
:102580001A713023FB18F4225A713023FB180122F0
:102590009A713023FB180022DA713023FB180022D5
:1025A0001A723023FB181800FFF71AF803001A00FC
:1025B0003023FB185A723023FB1856480A221900A0
:1025C000FEF7FAF9FEF73AFF3C23FB1855221A7082
:1025D0003C23FB1855225A703C23FB1803229A70A7
:1025E0003C23FB180722DA703C23FB1801221A71E6
:1025F0003C23FB1858225A713C23FB1802229A7183
:102600003C23FB180022DA713C23FB1800221A72CB
:102610003C23FB181800FEF7E3FF03001A003C23DD
:10262000FB185A723C23FB183A480A221900FEF79D
:10263000C3F9FEF71FFF4823FB1855221A704823E1
:10264000FB1855225A704823FB1802229A7048231F
:10265000FB180722DA704823FB1801221A7148235D
:10266000FB18F4225A714823FB1801229A7148235F
:10267000FB180022DA714823FB1800221A72482343
:10268000FB181800FEF7ACFF03001A004823FB18E4
:102690005A724823FB181F480A221900FEF78CF9CA
:1026A0003023FB1855221A703023FB1855225A701C
:1026B0003023FB1804229A703023FB180722DA70AB
:1026C0003023FB1801221A713023FB18F4225A71AF
:1026D0003023FB1801229A713023FB180022DA7193
:1026E0003023FB1800221A723023FB181800FEF763
:1026F00077FF03001A003023FB185A723023FB18AF
:1027000004480A221900FEF757F9C046BD4618B022
:1027100080BDC0460000054080B598B000AF54238E
:10272000FB1818000A231A00002102F019FD4823A3
:10273000FB1818000A231A00002102F011FD3C23A7
:10274000FB1818000A231A00002102F009FD3023AB
:10275000FB1818000A231A00002102F001FD2423AF
:10276000FB1818000A231A00002102F0F9FC1823B4
:10277000FB1818000A231A00002102F0F1FC0C23B8
:10278000FB1818000A231A00002102F0E9FC3B00A4
:1027900018000A231A00002102F0E2FCFE4B00227E
:1027A0001A600C23FB1855221A700C23FB185522B3
:1027B0005A700C23FB1807229A700C23FB1807226F
:1027C000DA700C23FB1801221A710C23FB18582213
:1027D0005A710C23FB1802229A710C23FB18002259
:1027E000DA710C23FB1800221A720C23FB18180054
:1027F000FEF7F6FE03001A000C23FB185A720C2396
:10280000FB18E6480A221900FEF7D6F82423FB1825
:1028100055221A702423FB1855225A702423FB18C2
:1028200005229A702423FB180722DA702423FB1850
:1028300001221A712423FB1858225A712423FB18F1
:1028400002229A712423FB180022DA712423FB1838
:1028500000221A722423FB181800FEF7C1FE0300A1
:102860001A002423FB185A722423FB18CB480A228F
:102870001900FEF7A1F81823FB1855221A70182327
:10288000FB1855225A701823FB1806229A70182339
:10289000FB180722DA701823FB1801221A7118237B
:1028A000FB1864225A711823FB1800229A7118230E
:1028B000FB180022DA711823FB1800221A72182361
:1028C000FB181800FEF78CFE03001A001823FB18F3
:1028D0005A721823FB18B1480A221900FEF76CF847
:1028E0003B0055221A703B0055225A703B000822CB
:1028F0009A703B000722DA703B0001221A713B00FC
:1029000084225A713B0003229A713B000022DA7143
:102910003B0000221A723B001800FEF761FE030024
:102920001A003B005A723B009C480A221900FEF72D
:1029300043F8FEF783FD0C23FB1855221A700C2375
:10294000FB1855225A700C23FB1807229A700C238F
:10295000FB180722DA700C23FB1801221A710C23D2
:10296000FB18F4225A710C23FB1801229A710C23D4
:10297000FB180022DA710C23FB1800221A720C23B8
:10298000FB181800FEF72CFE03001A000C23FB189E
:102990005A720C23FB1881480A221900FEF70CF822
:1029A000FEF74CFD5423FB1855221A705423FB18D4
:1029B00055225A705423FB1801229A705423FB1895
:1029C0000722DA705423FB1801221A715423FB18D2
:1029D000F4225A715423FB1801229A715423FB18D4
:1029E0000022DA715423FB1800221A725423FB18B8
:1029F0001800FEF7F5FD03001A005423FB185A7265
:102A00005423FB1865480A221900FDF7D5FFFEF78D
:102A100015FD4823FB1855221A704823FB18552230
:102A20005A704823FB1802229A704823FB18072289
:102A3000DA704823FB1801221A714823FB188422FC
:102A40005A714823FB1803229A714823FB1800226D
:102A5000DA714823FB1800221A724823FB18180069
:102A6000FEF7BEFD03001A004823FB185A724823E4
:102A7000FB184A480A221900FDF79EFFFEF7DEFC0C
:102A80005423FB1855221A705423FB1855225A70F0
:102A90005423FB1801229A705423FB180722DA7082
:102AA0005423FB1801221A715423FB1858225A711F
:102AB0005423FB1802229A715423FB180022DA7166
:102AC0005423FB1800221A725423FB181800FEF737
:102AD00087FD03001A005423FB185A725423FB1875
:102AE0002E480A221900FDF767FFFEF7A7FC0C230A
:102AF000FB1855221A700C23FB1855225A700C2310
:102B0000FB1807229A700C23FB180722DA700C239B
:102B1000FB1801221A710C23FB1858225A710C233E
:102B2000FB1802229A710C23FB180022DA710C2385
:102B3000FB1800221A720C23FB181800FEF750FD38
:102B400003001A000C23FB185A720C23FB181348BD
:102B50000A221900FDF730FFFEF770FC2423FB1852
:102B600055221A702423FB1855225A702423FB186F
:102B700005229A702423FB180722DA702423FB18FD
:102B800001221A712423FB18F4225A712423FB1802
:102B900001229A7104E0C046900400200000054024
:102BA0002423FB180022DA712423FB1800221A7256
:102BB0002423FB181800FEF713FD03001A0024233A
:102BC000FB185A722423FB18A9480A221900FDF7A2
:102BD000F3FEFEF733FC3C23FB1855221A703C230E
:102BE000FB1855225A703C23FB1803229A703C2391
:102BF000FB180722DA703C23FB1801221A713C23D0
:102C0000FB18F4225A713C23FB1801229A713C23D1
:102C1000FB180022DA713C23FB1800221A723C23B5
:102C2000FB181800FEF7DCFC03001A003C23FB181D
:102C30005A723C23FB188E480A221900FDF7BCFE8D
:102C4000FEF7FCFB3023FB1855221A703023FB18CB
:102C500055225A703023FB1804229A703023FB1837
:102C60000722DA703023FB1801221A713023FB1877
:102C700064225A713023FB1800229A713023FB180A
:102C80000022DA713023FB1800221A723023FB185D
:102C90001800FEF7A5FC03001A003023FB185A7237
:102CA0003023FB1872480A221900FDF785FEFEF753
:102CB000C5FB3C23FB1855221A703C23FB185522F8
:102CC0005A703C23FB1803229A703C23FB180722FE
:102CD000DA703C23FB1801221A713C23FB1858229E
:102CE0005A713C23FB1802229A713C23FB180022E4
:102CF000DA713C23FB1800221A723C23FB181800DF
:102D0000FEF76EFC03001A003C23FB185A723C23AA
:102D1000FB1857480A221900FDF74EFEFEF7AAFBE2
:102D20002423FB1855221A702423FB1855225A70AD
:102D30002423FB1805229A702423FB180722DA703B
:102D40002423FB1801221A712423FB1858225A71DC
:102D50002423FB1802229A712423FB180022DA7123
:102D60002423FB1800221A722423FB181800FEF7F4
:102D700037FC03001A002423FB185A722423FB1883
:102D80003B480A221900FDF717FEFEF773FBFEF71A
:102D900071FB4823FB1855221A704823FB18552253
:102DA0005A704823FB1802229A704823FB18072206
:102DB000DA704823FB1801221A714823FB18F42209
:102DC0005A714823FB1801229A714823FB180022EC
:102DD000DA714823FB1800221A724823FB181800E6
:102DE000FEF7FEFB03001A004823FB185A72482323
:102DF000FB181F480A221900FDF7DEFD3023FB18DF
:102E000055221A703023FB1855225A703023FB18B4
:102E100004229A703023FB180722DA703023FB1843
:102E200001221A713023FB18F4225A713023FB1847
:102E300001229A713023FB180022DA713023FB182B
:102E400000221A723023FB181800FEF7C9FB03009A
:102E50001A003023FB185A723023FB1804480A2248
:102E60001900FDF7A9FDC046BD4618B080BDC0469B
:102E70000000054080B598B000AF5423FB1818003F
:102E80000A231A00002102F06BF94823FB181800EE
:102E90000A231A00002102F063F93C23FB181800F2
:102EA0000A231A00002102F05BF93023FB181800F6
:102EB0000A231A00002102F053F92423FB181800FA
:102EC0000A231A00002102F04BF91823FB181800FE
:102ED0000A231A00002102F043F90C23FB18180002
:102EE0000A231A00002102F03BF93B0018000A23D4
:102EF0001A00002102F034F9FE4B00221A6024234C
:102F0000FB1855221A702423FB1855225A702423CB
:102F1000FB1805229A702423FB180722DA70242359
:102F2000FB1801221A712423FB182C225A71242326
:102F3000FB1801229A712423FB180022DA71242342
:102F4000FB1800221A722423FB181800FEF748FB16
:102F500003001A002423FB185A722423FB18E648A6
:102F60000A221900FDF728FD0C23FB1855221A70C0
:102F70000C23FB1855225A700C23FB1807229A7059
:102F80000C23FB180722DA700C23FB1801221A719C
:102F90000C23FB182C225A710C23FB1801229A7166
:102FA0000C23FB180022DA710C23FB1800221A7282
:102FB0000C23FB181800FEF713FB03001A000C2368
:102FC000FB185A720C23FB18CB480A221900FDF794
:102FD000F3FCFEF74FFA5423FB1855221A705423C2
:102FE000FB1855225A705423FB1801229A7054235F
:102FF000FB180722DA705423FB1801221A7154239C
:10300000FB1864225A715423FB1800229A7154232E
:10301000FB180022DA715423FB1800221A72542381
:10302000FB181800FEF7DCFA03001A005423FB1803
:103030005A725423FB18B0480A221900FDF7BCFC51
:10304000FEF718FA4823FB1855221A704823FB187C
:1030500055225A704823FB1802229A704823FB1805
:103060000722DA704823FB1801221A714823FB1843
:1030700084225A714823FB1803229A714823FB18B3
:103080000022DA714823FB1800221A724823FB1829
:103090001800FEF7A5FA03001A004823FB185A721D
:1030A0004823FB1894480A221900FDF785FCFEF717
:1030B000E1F95423FB1855221A705423FB185522AA
:1030C0005A705423FB1801229A705423FB180722CC
:1030D000DA705423FB1801221A715423FB1858226A
:1030E0005A715423FB1802229A715423FB180022B0
:1030F000DA715423FB1800221A725423FB181800AB
:10310000FEF76EFA03001A005423FB185A72542378
:10311000FB1879480A221900FDF74EFCFEF7AAF9C0
:103120003C23FB1855221A703C23FB1855225A7079
:103130003C23FB1803229A703C23FB180722DA7009
:103140003C23FB1801221A713C23FB1864225A719C
:103150003C23FB1800229A713C23FB180022DA71F1
:103160003C23FB1800221A723C23FB181800FEF7C0
:1031700037FA03001A003C23FB185A723C23FB1851
:103180005D480A221900FDF717FCFEF773F930239A
:10319000FB1855221A703023FB1855225A70302321
:1031A000FB1804229A703023FB180722DA703023B0
:1031B000FB1801221A713023FB1864225A71302344
:1031C000FB1800229A713023FB180022DA71302399
:1031D000FB1800221A723023FB181800FEF700FAC1
:1031E00003001A003023FB185A723023FB184248A0
:1031F0000A221900FDF7E0FBFEF73CF93C23FB181F
:1032000055221A703C23FB1855225A703C23FB1898
:1032100003229A703C23FB180722DA703C23FB1828
:1032200001221A713C23FB1858225A713C23FB18C7
:1032300002229A713C23FB180022DA713C23FB180E
:1032400000221A723C23FB181800FEF7C9F903008C
:103250001A003C23FB185A723C23FB1826480A220A
:103260001900FDF7A9FBFEF705F92423FB185522E9
:103270001A702423FB1855225A702423FB180522A8
:103280009A702423FB180722DA702423FB180122EA
:103290001A712423FB1858225A712423FB18022286
:1032A0009A712423FB180022DA712423FB180022D0
:1032B0001A722423FB181800FEF792F903001A0073
:1032C0002423FB185A722423FB180B480A221900E6
:1032D000FDF772FB0C23FB1855221A700C23FB1808
:1032E00055225A700C23FB1807229A700C23FB18E6
:1032F00004E0C04690040020000005400722DA7078
:103300000C23FB1801221A710C23FB1858225A7146
:103310000C23FB1802229A710C23FB180022DA718D
:103320000C23FB1800221A720C23FB181800FEF75E
:1033300057F903001A000C23FB185A720C23FB18D0
:103340006A480A221900FDF737FBFEF793F8482375
:10335000FB1855221A704823FB1855225A7048232F
:10336000FB1802229A704823FB180722DA704823C0
:10337000FB1801221A714823FB18F4225A714823C2
:10338000FB1801229A714823FB180022DA714823A6
:10339000FB1800221A724823FB181800FEF720F9C8
:1033A00003001A004823FB185A724823FB184F48A1
:1033B0000A221900FDF700FB3023FB1855221A7072
:1033C0003023FB1855225A703023FB1804229A70C0
:1033D0003023FB180722DA703023FB1801221A7100
:1033E0003023FB18F4225A713023FB1801229A7102
:1033F0003023FB180022DA713023FB1800221A72E6
:103400003023FB181800FEF7EBF803001A003023F6
:10341000FB185A723023FB1834480A221900FDF7B2
:10342000CBFA1823FB1855221A701823FB185522C3
:103430005A701823FB1806229A701823FB180722CB
:10344000DA701823FB1801221A711823FB18642262
:103450005A711823FB1800229A711823FB180022B6
:10346000DA711823FB1800221A721823FB181800AF
:10347000FEF7B6F803001A001823FB185A72182337
:10348000FB181A480A221900FDF796FA3B0055224C
:103490001A703B0055225A703B0008229A703B007C
:1034A0000722DA703B0001221A713B0084225A7114
:1034B0003B0003229A713B000022DA713B0000229C
:1034C0001A723B001800FEF78BF803001A003B004D
:1034D0005A723B0005480A221900FDF76DFAFDF704
:1034E000C9FFC046BD4618B080BDC04600000540BB
:1034F00080B598B000AF5423FB1818000A231A00B7
:10350000002101F02DFE4823FB1818000A231A00A1
:10351000002101F025FE3C23FB1818000A231A00A5
:10352000002101F01DFE3023FB1818000A231A00A9
:10353000002101F015FE2423FB1818000A231A00AD
:10354000002101F00DFE1823FB1818000A231A00B1
:10355000002101F005FE0C23FB1818000A231A00B5
:10356000002101F0FDFD3B0018000A231A00002194
:1035700001F0F6FDFE4B00221A605423FB18552281
:103580001A705423FB1855225A705423FB18012239
:103590009A705423FB180722DA705423FB18012277
:1035A0001A715423FB182C225A715423FB18012240
:1035B0009A715423FB180022DA715423FB1800225D
:1035C0001A725423FB181800FEF70AF803001A00B9
:1035D0005423FB185A725423FB18E6480A22190098
:1035E000FDF7EAF9FDF72AFF3C23FB1855221A7074
:1035F0003C23FB1855225A703C23FB1803229A7077
:103600003C23FB180722DA703C23FB1801221A71B5
:103610003C23FB182C225A713C23FB1801229A717F
:103620003C23FB180022DA713C23FB1800221A729B
:103630003C23FB181800FDF7D3FF03001A003C23BE
:10364000FB185A723C23FB18CA480A221900FDF7DE
:10365000B3F9FDF7F3FE2423FB1855221A70242337
:10366000FB1855225A702423FB1805229A70242334
:10367000FB180722DA702423FB1801221A71242375
:10368000FB1864225A712423FB1800229A71242308
:10369000FB180022DA712423FB1800221A7224235B
:1036A000FB181800FDF79CFF03001A002423FB18E9
:1036B0005A722423FB18AF480A221900FDF77CF93F
:1036C000FDF7D8FE1823FB1855221A701823FB1893
:1036D00055225A701823FB1806229A701823FB18DB
:1036E0000722DA701823FB1801221A711823FB181D
:1036F000F4225A711823FB1801229A711823FB181F
:103700000022DA711823FB1800221A721823FB1802
:103710001800FDF765FF03001A001823FB185A7202
:103720001823FB1893480A221900FDF745F9FDF705
:10373000A1FE2423FB1855221A702423FB185522BE
:103740005A702423FB1805229A702423FB180722A1
:10375000DA702423FB1801221A712423FB18582243
:103760005A712423FB1802229A712423FB18002289
:10377000DA712423FB1800221A722423FB18180084
:10378000FDF72EFF03001A002423FB185A7224238E
:10379000FB1878480A221900FDF70EF9FDF76AFEBA
:1037A0000C23FB1855221A700C23FB1855225A7053
:1037B0000C23FB1807229A700C23FB180722DA70DF
:1037C0000C23FB1801221A710C23FB1864225A7176
:1037D0000C23FB1800229A710C23FB180022DA71CB
:1037E0000C23FB1800221A720C23FB181800FDF79B
:1037F000F7FE03001A000C23FB185A720C23FB1867
:103800005C480A221900FDF7D7F8FDF733FE3B00AC
:1038100055221A703B0055225A703B0008229A70BC
:103820003B000722DA703B0001221A713B00F422B0
:103830005A713B0001229A713B000022DA713B0071
:1038400000221A723B001800FDF7CAFE03001A009E
:103850003B005A723B0047480A221900FDF7ACF8BA
:10386000FDF708FE0C23FB1855221A700C23FB18D9
:1038700055225A700C23FB1807229A700C23FB1850
:103880000722DA700C23FB1801221A710C23FB1893
:1038900058225A710C23FB1802229A710C23FB1830
:1038A0000022DA710C23FB1800221A720C23FB1879
:1038B0001800FDF795FE03001A000C23FB185A723E
:1038C0000C23FB182B480A221900FDF775F8FDF7A9
:1038D000D1FD5423FB1855221A705423FB1855228E
:1038E0005A705423FB1801229A705423FB180722A4
:1038F000DA705423FB1801221A715423FB18582242
:103900005A715423FB1802229A715423FB18002287
:10391000DA715423FB1800221A725423FB18180082
:10392000FDF75EFE03001A005423FB185A7254235D
:10393000FB1810480A221900FDF73EF83C23FB183B
:1039400055221A703C23FB1855225A703C23FB1851
:1039500003229A703C23FB180722DA703C23FB18E1
:1039600001221A713C23FB1858225A7104E0C04608
:1039700090040020000005403C23FB1802229A71AD
:103980003C23FB180022DA713C23FB1800221A7238
:103990003C23FB181800FDF723FE03001A003C230C
:1039A000FB185A723C23FB1806480A221900FDF73F
:1039B00003F8FDF75FFDFDF75DFDC046BD4618B09D
:1039C00080BDC0460000054080B598B000AF5423CC
:1039D000FB1818000A231A00002101F0C1FB48233C
:1039E000FB1818000A231A00002101F0B9FB3C2340
:1039F000FB1818000A231A00002101F0B1FB302344
:103A0000FB1818000A231A00002101F0A9FB242347
:103A1000FB1818000A231A00002101F0A1FB18234B
:103A2000FB1818000A231A00002101F099FB0C234F
:103A3000FB1818000A231A00002101F091FB3B003B
:103A400018000A231A00002101F08AFBFE4B002215
:103A50001A605423FB1855221A705423FB18552260
:103A60005A705423FB1801229A705423FB18072222
:103A7000DA705423FB1801221A715423FB182C22EC
:103A80005A715423FB1801229A715423FB18002207
:103A9000DA715423FB1800221A725423FB18180001
:103AA000FDF79EFD03001A005423FB185A7254239D
:103AB000FB18E6480A221900FCF77EFF3C23FB189E
:103AC00055221A703C23FB1855225A703C23FB18D0
:103AD00003229A703C23FB180722DA703C23FB1860
:103AE00001221A713C23FB1890225A713C23FB18C7
:103AF00001229A713C23FB180022DA713C23FB1847
:103B000000221A723C23FB181800FDF769FD030020
:103B10001A003C23FB185A723C23FB18CB480A229C
:103B20001900FCF749FF0C23FB1855221A700C23CF
:103B3000FB1855225A700C23FB1807229A700C238D
:103B4000FB180722DA700C23FB1801221A710C23D0
:103B5000FB182C225A710C23FB1801229A710C239A
:103B6000FB180022DA710C23FB1800221A720C23B6
:103B7000FB181800FDF734FD03001A000C23FB1896
:103B80005A720C23FB18B1480A221900FCF714FFE3
:103B90002423FB1855221A702423FB1855225A702F
:103BA0002423FB1805229A702423FB180722DA70BD
:103BB0002423FB1801221A712423FB1890225A7126
:103BC0002423FB1801229A712423FB180022DA71A6
:103BD0002423FB1800221A722423FB181800FDF777
:103BE000FFFC03001A002423FB185A722423FB183D
:103BF00096480A221900FCF7DFFEFDF71FFC482358
:103C0000FB1855221A704823FB1855225A70482376
:103C1000FB1802229A704823FB180722DA70482307
:103C2000FB1801221A714823FB1826225A714823D7
:103C3000FB1802229A714823FB180022DA714823EC
:103C4000FB1800221A724823FB181800FDF7C8FC65
:103C500003001A004823FB185A724823FB187B48BC
:103C60000A221900FCF7A8FE3023FB1855221A700F
:103C70003023FB1855225A703023FB1804229A7007
:103C80003023FB180722DA703023FB1801221A7147
:103C90003023FB1826225A713023FB1802229A7116
:103CA0003023FB180022DA713023FB1800221A722D
:103CB0003023FB181800FDF793FC03001A00302393
:103CC000FB185A723023FB1860480A221900FCF7CF
:103CD00073FE3B0055221A703B0055225A703B0080
:103CE00008229A703B000722DA703B0001221A7109
:103CF0003B00C2225A713B0001229A713B00002214
:103D0000DA713B0000221A723B001800FDF768FCD4
:103D100003001A003B005A723B004C480A2219006B
:103D2000FCF74AFE1823FB1855221A701823FB18BB
:103D300055225A701823FB1806229A701823FB1874
:103D40000722DA701823FB1801221A711823FB18B6
:103D5000C2225A711823FB1801229A711823FB18EA
:103D60000022DA711823FB1800221A721823FB189C
:103D70001800FDF735FC03001A001823FB185A72CF
:103D80001823FB1831480A221900FCF715FEFDF72D
:103D900055FB5423FB1855221A705423FB18552247
:103DA0005A705423FB1801229A705423FB180722DF
:103DB000DA705423FB1801221A715423FB18902245
:103DC0005A715423FB1801229A715423FB180022C4
:103DD000DA715423FB1800221A725423FB181800BE
:103DE000FDF7FEFB03001A005423FB185A725423FC
:103DF000FB1816480A221900FCF7DEFD3C23FB18CD
:103E000055221A703C23FB1855225A703C23FB188C
:103E100003229A703C23FB180722DA703C23FB181C
:103E200001221A713C23FB182C225A713C23FB18E7
:103E300001229A713C23FB180022DA713C23FB1803
:103E400000221A7204E0C0469004002000000540E1
:103E50003C23FB181800FDF7C3FB03001A003C23AA
:103E6000FB185A723C23FB189F480A221900FCF7E2
:103E7000A3FD0C23FB1855221A700C23FB185522A6
:103E80005A700C23FB1807229A700C23FB18072288
:103E9000DA700C23FB1801221A710C23FB189022F4
:103EA0005A710C23FB1801229A710C23FB18002273
:103EB000DA710C23FB1800221A720C23FB1818006D
:103EC000FDF78EFB03001A000C23FB185A720C231B
:103ED000FB1885480A221900FCF76EFD2423FB1805
:103EE00055221A702423FB1855225A702423FB18DC
:103EF00005229A702423FB180722DA702423FB186A
:103F000001221A712423FB182C225A712423FB1836
:103F100001229A712423FB180022DA712423FB1852
:103F200000221A722423FB181800FDF759FB030026
:103F30001A002423FB185A722423FB186A480A2209
:103F40001900FCF739FDFDF779FA4823FB185522D3
:103F50001A704823FB1855225A704823FB18022276
:103F60009A704823FB180722DA704823FB180122B5
:103F70001A714823FB18C2225A714823FB180122E8
:103F80009A714823FB180022DA714823FB1800229B
:103F90001A724823FB181800FDF722FB03001A00D1
:103FA0004823FB185A724823FB184F480A2219006D
:103FB000FCF702FD3023FB1855221A703023FB1842
:103FC00055225A703023FB1804229A703023FB18B4
:103FD0000722DA703023FB1801221A713023FB18F4
:103FE000C2225A713023FB1801229A713023FB1828
:103FF0000022DA713023FB1800221A723023FB18DA
:104000001800FDF7EDFA03001A003023FB185A726E
:104010003023FB1834480A221900FCF7CDFC3B0082
:1040200055221A703B0055225A703B0008229A70A4
:104030003B000722DA703B0001221A713B00262266
:104040005A713B0002229A713B000022DA713B0058
:1040500000221A723B001800FDF7C2FA03001A0092
:104060003B005A723B0020480A221900FCF7A4FCCE
:104070001823FB1855221A701823FB1855225A7062
:104080001823FB1806229A701823FB180722DA70EF
:104090001823FB1801221A711823FB1826225A71C3
:1040A0001823FB1802229A711823FB180022DA71D8
:1040B0001823FB1800221A721823FB181800FDF7AA
:1040C0008FFA03001A001823FB185A721823FB18E2
:1040D00005480A221900FCF76FFCFDF7AFF9C0464E
:1040E000BD4618B080BDC0460000054080B598B000
:1040F00000AF5423FB1818000A231A00002101F016
:104100002FF84823FB1818000A231A00002101F099
:1041100027F83C23FB1818000A231A00002101F09D
:104120001FF83023FB1818000A231A00002101F0A1
:1041300017F82423FB1818000A231A00002101F0A5
:104140000FF81823FB1818000A231A00002101F0A9
:1041500007F80C23FB1818000A231A00002100F0AE
:10416000FFFF3B0018000A231A00002100F0F8FFAF
:10417000FE4B00221A605423FB1855221A70542358
:10418000FB1855225A705423FB1801229A705423AD
:10419000FB180722DA705423FB1801221A715423EA
:1041A000FB182C225A715423FB1801229A715423B4
:1041B000FB180022DA715423FB1800221A725423D0
:1041C000FB181800FDF70CFA03001A005423FB1823
:1041D0005A725423FB18E6480A221900FCF7ECFB3C
:1041E0003C23FB1855221A703C23FB1855225A70A9
:1041F0003C23FB1803229A703C23FB180722DA7039
:104200003C23FB1801221A713C23FB1890225A719F
:104210003C23FB1801229A713C23FB180022DA711F
:104220003C23FB1800221A723C23FB181800FDF7F0
:10423000D7F903001A003C23FB185A723C23FB18E1
:10424000CB480A221900FCF7B7FB0C23FB185522B8
:104250001A700C23FB1855225A700C23FB180722E6
:104260009A700C23FB180722DA700C23FB1801222A
:104270001A710C23FB182C225A710C23FB180122F3
:104280009A710C23FB180022DA710C23FB18002210
:104290001A720C23FB181800FDF7A2F903001A008C
:1042A0000C23FB185A720C23FB18B1480A22190080
:1042B000FCF782FB2423FB1855221A702423FB18D9
:1042C00055225A702423FB1805229A702423FB18C8
:1042D0000722DA702423FB1801221A712423FB1809
:1042E00090225A712423FB1801229A712423FB186F
:1042F0000022DA712423FB1800221A722423FB18EF
:104300001800FDF76DF903001A002423FB185A72F8
:104310002423FB1896480A221900FCF74DFBFDF7F1
:104320008DF84823FB1855221A704823FB18552294
:104330005A704823FB1802229A704823FB18072260
:10434000DA704823FB1801221A714823FB18F42263
:104350005A714823FB1801229A714823FB18002246
:10436000DA714823FB1800221A724823FB18180040
:10437000FDF736F903001A004823FB185A72482348
:10438000FB187B480A221900FCF716FB3023FB18A8
:1043900055221A703023FB1855225A703023FB180F
:1043A00004229A703023FB180722DA703023FB189E
:1043B00001221A713023FB1826225A713023FB1870
:1043C00002229A713023FB180022DA713023FB1885
:1043D00000221A723023FB181800FDF701F90300C0
:1043E0001A003023FB185A723023FB1860480A2247
:1043F0001900FCF7E1FA3B0055221A703B005522E8
:104400005A703B0008229A703B000722DA703B008A
:1044100001221A713B00C2225A713B0001229A719B
:104420003B000022DA713B0000221A723B001800A8
:10443000FDF7D6F803001A003B005A723B004C48C7
:104440000A221900FCF7B8FA1823FB1855221A7033
:104450001823FB1855225A701823FB1806229A704D
:104460001823FB180722DA701823FB1801221A718F
:104470001823FB18F4225A711823FB1801229A7191
:104480001823FB180022DA711823FB1800221A7275
:104490001823FB181800FDF7A3F803001A001823CF
:1044A000FB185A721823FB1831480A221900FCF72E
:1044B00083FAFCF7C3FF5423FB1855221A705423C8
:1044C000FB1855225A705423FB1801229A7054236A
:1044D000FB180722DA705423FB1801221A715423A7
:1044E000FB1890225A715423FB1801229A7154230D
:1044F000FB180022DA715423FB1800221A7254238D
:10450000FB181800FDF76CF803001A005423FB1881
:104510005A725423FB1816480A221900FCF74CFA69
:104520003C23FB1855221A703C23FB1855225A7065
:104530003C23FB1803229A703C23FB180722DA70F5
:104540003C23FB1801221A713C23FB182C225A71C0
:104550003C23FB1801229A713C23FB180022DA71DC
:104560003C23FB1800221A7204E0C046900400208D
:10457000000005403C23FB181800FDF731F803004C
:104580001A003C23FB185A723C23FB189F480A224E
:104590001900FCF711FA0C23FB1855221A700C2392
:1045A000FB1855225A700C23FB1807229A700C2313
:1045B000FB180722DA700C23FB1801221A710C2356
:1045C000FB1890225A710C23FB1801229A710C23BC
:1045D000FB180022DA710C23FB1800221A720C233C
:1045E000FB181800FCF7FCFF03001A000C23FB1853
:1045F0005A720C23FB1885480A221900FCF7DCF9D3
:104600002423FB1855221A702423FB1855225A70B4
:104610002423FB1805229A702423FB180722DA7042
:104620002423FB1801221A712423FB182C225A710F
:104630002423FB1801229A712423FB180022DA712B
:104640002423FB1800221A722423FB181800FCF7FD
:10465000C7FF03001A002423FB185A722423FB18F7
:104660006A480A221900FCF7A7F9FCF7E7FE48237D
:10467000FB1855221A704823FB1855225A704823FC
:10468000FB1802229A704823FB180722DA7048238D
:10469000FB1801221A714823FB18F4225A7148238F
:1046A000FB1801229A714823FB180022DA71482373
:1046B000FB1800221A724823FB181800FCF790FF21
:1046C00003001A004823FB185A724823FB184F486E
:1046D0000A221900FCF770F93023FB1855221A70D2
:1046E0003023FB1855225A703023FB1804229A708D
:1046F0003023FB180722DA703023FB1801221A71CD
:104700003023FB18C2225A713023FB1801229A7100
:104710003023FB180022DA713023FB1800221A72B2
:104720003023FB181800FCF75BFF03001A0030234E
:10473000FB185A723023FB1834480A221900FCF780
:104740003BF93B0055221A703B0055225A703B0042
:1047500008229A703B000722DA703B0001221A718E
:104760003B0026225A713B0002229A713B00002234
:10477000DA713B0000221A723B001800FCF730FF90
:1047800003001A003B005A723B0020480A2219001D
:10479000FCF712F91823FB1855221A701823FB187E
:1047A00055225A701823FB1806229A701823FB18FA
:1047B0000722DA701823FB1801221A711823FB183C
:1047C000F4225A711823FB1801229A711823FB183E
:1047D0000022DA711823FB1800221A721823FB1822
:1047E0001800FCF7FDFE03001A001823FB185A728C
:1047F0001823FB1805480A221900FCF7DDF8FCF71E
:104800001DFEC046BD4618B080BDC0460000054034
:1048100080B598B000AF5423FB1818000A231A0083
:10482000002100F09DFC4823FB1818000A231A0001
:10483000002100F095FC3C23FB1818000A231A0005
:10484000002100F08DFC3023FB1818000A231A0009
:10485000002100F085FC2423FB1818000A231A000D
:10486000002100F07DFC1823FB1818000A231A0011
:10487000002100F075FC0C23FB1818000A231A0015
:10488000002100F06DFC3B0018000A231A000021F3
:1048900000F066FCFE4B00221A605423FB185522E0
:1048A0001A705423FB1855225A705423FB18012206
:1048B0009A705423FB180722DA705423FB18012244
:1048C0001A715423FB182C225A715423FB1801220D
:1048D0009A715423FB180022DA715423FB1800222A
:1048E0001A725423FB181800FCF77AFE03001A0012
:1048F0005423FB185A725423FB18E6480A22190065
:10490000FCF75AF83C23FB1855221A703C23FB187D
:1049100055225A703C23FB1803229A703C23FB1843
:104920000722DA703C23FB1801221A713C23FB1882
:1049300090225A713C23FB1801229A713C23FB18E8
:104940000022DA713C23FB1800221A723C23FB1868
:104950001800FCF745FE03001A003C23FB185A72AE
:104960003C23FB18CB480A221900FCF725F80C233E
:10497000FB1855221A700C23FB1855225A700C2371
:10498000FB1807229A700C23FB180722DA700C23FD
:10499000FB1801221A710C23FB182C225A710C23CC
:1049A000FB1801229A710C23FB180022DA710C23E8
:1049B000FB1800221A720C23FB181800FCF710FEDB
:1049C00003001A000C23FB185A720C23FB18B14881
:1049D0000A221900FBF7F0FF2423FB1855221A7056
:1049E0002423FB1855225A702423FB1805229A70A1
:1049F0002423FB180722DA702423FB1801221A71E2
:104A00002423FB1890225A712423FB1801229A7147
:104A10002423FB180022DA712423FB1800221A72C7
:104A20002423FB181800FCF7DBFD03001A002423E5
:104A3000FB185A722423FB1896480A221900FBF728
:104A4000BBFFFCF7FBFC4823FB1855221A704823D8
:104A5000FB1855225A704823FB1802229A704823EB
:104A6000FB180722DA704823FB1801221A71482329
:104A7000FB1826225A714823FB1802229A714823F8
:104A8000FB180022DA714823FB1800221A7248230F
:104A9000FB181800FCF7A4FD03001A004823FB18BC
:104AA0005A724823FB187B480A221900FBF784FF3F
:104AB0003023FB1855221A703023FB1855225A70E8
:104AC0003023FB1804229A703023FB180722DA7077
:104AD0003023FB1801221A713023FB18F4225A717B
:104AE0003023FB1801229A713023FB180022DA715F
:104AF0003023FB1800221A723023FB181800FCF731
:104B00006FFD03001A003023FB185A723023FB1884
:104B100060480A221900FBF74FFF3B0055221A702C
:104B20003B0055225A703B0008229A703B00072236
:104B3000DA703B0001221A713B00F4225A713B00EB
:104B400001229A713B000022DA713B0000221A72A6
:104B50003B001800FCF744FD03001A003B005A72AA
:104B60003B004C480A221900FBF726FF1823FB18CC
:104B700055221A701823FB1855225A701823FB1857
:104B800006229A701823FB180722DA701823FB18E4
:104B900001221A711823FB18C2225A711823FB181C
:104BA00001229A711823FB180022DA711823FB18CE
:104BB00000221A721823FB181800FCF711FD0300DD
:104BC0001A001823FB185A721823FB1831480A22BE
:104BD0001900FBF7F1FEFCF731FC5423FB185522BA
:104BE0001A705423FB1855225A705423FB180122C3
:104BF0009A705423FB180722DA705423FB18012201
:104C00001A715423FB1890225A715423FB18012265
:104C10009A715423FB180022DA715423FB180022E6
:104C20001A725423FB181800FCF7DAFC03001A0070
:104C30005423FB185A725423FB1816480A221900F1
:104C4000FBF7BAFE3C23FB1855221A703C23FB18D5
:104C500055225A703C23FB1803229A703C23FB1800
:104C60000722DA703C23FB1801221A713C23FB183F
:104C70002C225A713C23FB1801229A713C23FB1809
:104C80000022DA713C23FB1800221A7204E0C046AD
:104C900090040020000005403C23FB181800FCF79E
:104CA0009FFC03001A003C23FB185A723C23FB189C
:104CB0009F480A221900FBF77FFE0C23FB185522A0
:104CC0001A700C23FB1855225A700C23FB1807226C
:104CD0009A700C23FB180722DA700C23FB180122B0
:104CE0001A710C23FB1890225A710C23FB18012215
:104CF0009A710C23FB180022DA710C23FB18002296
:104D00001A720C23FB181800FCF76AFC03001A0047
:104D10000C23FB185A720C23FB1885480A22190031
:104D2000FBF74AFE2423FB1855221A702423FB1894
:104D300055225A702423FB1805229A702423FB184D
:104D40000722DA702423FB1801221A712423FB188E
:104D50002C225A712423FB1801229A712423FB1858
:104D60000022DA712423FB1800221A722423FB1874
:104D70001800FCF735FC03001A002423FB185A72B4
:104D80002423FB186A480A221900FBF715FEFCF7DA
:104D900055FB4823FB1855221A704823FB1855224F
:104DA0005A704823FB1802229A704823FB180722E6
:104DB000DA704823FB1801221A714823FB18C2221B
:104DC0005A714823FB1801229A714823FB180022CC
:104DD000DA714823FB1800221A724823FB181800C6
:104DE000FCF7FEFB03001A004823FB185A72482305
:104DF000FB184F480A221900FBF7DEFD3023FB1891
:104E000055221A703023FB1855225A703023FB1894
:104E100004229A703023FB180722DA703023FB1823
:104E200001221A713023FB18F4225A713023FB1827
:104E300001229A713023FB180022DA713023FB180B
:104E400000221A723023FB181800FCF7C9FB03007C
:104E50001A003023FB185A723023FB1834480A22F8
:104E60001900FBF7A9FD3B0055221A703B005522A3
:104E70005A703B0008229A703B000722DA703B0010
:104E800001221A713B00F4225A713B0001229A71EF
:104E90003B000022DA713B0000221A723B0018002E
:104EA000FCF79EFB03001A003B005A723B002048AF
:104EB0000A221900FBF780FD1823FB1855221A70EF
:104EC0001823FB1855225A701823FB1806229A70D3
:104ED0001823FB180722DA701823FB1801221A7115
:104EE0001823FB1826225A711823FB1802229A71E4
:104EF0001823FB180022DA711823FB1800221A72FB
:104F00001823FB181800FCF76BFB03001A0018238A
:104F1000FB185A721823FB1805480A221900FBF7E0
:104F20004BFDFCF78BFAC046BD4618B080BDC046AD
:104F30000000054080B582B000AF00237B600023F5
:104F40003B60FCF715FAFCF7B1FAFCF705FAFCF741
:104F50001FFB1D4B00221A601B4B1B68722B01D1DB
:104F6000FCF772FB184B1B68662B01D1FDF782FF23
:104F7000154B1B68622B01D1FEF7BAFA124B1B6866
:104F8000692B01D1FEF720FD0F4B1B686A2B01D165
:104F9000FFF7ACF80C4B1B686C2B01D1FFF738FC0A
:104FA000094B1B68772B01D1FDF7B6FB064B1B683D
:104FB000612B01D1FCF736FD034B1B68642BCBD171
:104FC000FDF76EF8C8E7C0469004002000224308B1
:104FD0008B4274D303098B425FD3030A8B4244D3C1
:104FE000030B8B4228D3030C8B420DD3FF22090203
:104FF00012BA030C8B4202D31212090265D0030BC2
:105000008B4219D300E0090AC30B8B4201D3CB03B7
:10501000C01A5241830B8B4201D38B03C01A5241F9
:10502000430B8B4201D34B03C01A5241030B8B42FB
:1050300001D30B03C01A5241C30A8B4201D3CB02E6
:10504000C01A5241830A8B4201D38B02C01A5241CB
:10505000430A8B4201D34B02C01A5241030A8B42CE
:1050600001D30B02C01A5241CDD2C3098B4201D3E6
:10507000CB01C01A524183098B4201D38B01C01A64
:10508000524143098B4201D34B01C01A52410309DB
:105090008B4201D30B01C01A5241C3088B4201D38A
:1050A000CB00C01A524183088B4201D38B00C01A37
:1050B000524143088B4201D34B00C01A5241411A5E
:1050C00000D20146524110467047FFE701B500206B
:1050D00000F006F802BDC0460029F7D076E7704719
:1050E0007047C04670B50F2A32D90C0004430B003C
:1050F000A40731D115000400103D2D0901352D0103
:1051000049191E6826605E6866609E68A660DE6853
:105110001033E66010349942F3D10F234519134040
:10512000032B1BD91C1F0023A4080134A400CE5854
:10513000EE5004339C42FAD103232D1909191A4069
:1051400005D00023CC5CEC5401339A42FAD170BDF7
:105150000500002AF5D1FAE70500F2E71A00F8E7A2
:1051600070B583073FD0541E002A3BD0CEB2030057
:10517000032503E0621E002C34D0140001335A1EB4
:1051800016702B42F6D1032C24D9FF250D402A029C
:1051900015432A0415430F2C11D92600103E360959
:1051A000013636011A009B19156055609560D5606F
:1051B00010329342F8D10F221440032C0AD9261F33
:1051C000B6080136B6001A009B1920C29342FCD1E2
:1051D00003221440002C05D0C9B21C1919700133E8
:1051E0009C42FBD170BD14000300CCE7034B10B50B
:1051F000002B02D0024800F005F810BD00000000AE
:105200001552000010B5010000230022002000F01C
:105210001BF810BD70B5094B094CE41AA41009D055
:10522000084AA518AD00ED182B68013C9847043DCD
:10523000002CF9D100F078F870BDC0466004002061
:1052400064040020FFFFFF3FF8B544465F46564622
:105250004D469B462F4BF0B41C68A4235B00050011
:10526000E0580E00904600284BD043681F2B0DDC01
:105270005C1C002D21D102339B0044601E50002095
:105280003CBC90469946A246AB46F8BD224B002B4B
:105290003CD0C820400000E000BF002836D0A42247
:1052A00000235200A15843600160A0504032835057
:1052B000043283500124002DDDD09A0091468144B0
:1052C000424688214F467A50C4225200904680447C
:1052D00042468739994012688A460A4394464246B4
:1052E00061461160842249465F4652008F50022D6C
:1052F000C1D1020055468D32FF3211680D43156051
:10530000B9E720004D30FF30E050AEE701204042C9
:10531000B6E7C0467053000000000000F8B5C04674
:10532000F8BC08BC9E467047F8B5C046F8BC08BC3F
:105330009E4670470102020401020204001BB700EE
:105340000000000000000000008051010102020482
:1053500000000000040000000C0000002400000019
:1053600000000000040000002C000000000000000D
:0453700030000020E9
:1053740080F0FA023200000080F0FA02001BB7004D
:105384000000000080F0FA02102700000000000076
:105394000000000000000000008051010000000037
:1053A400000000001C03002084030020EC03002004
:1053B40000000000000000000000000000000000E9
:1053C40000000000000000000000000000000000D9
:1053D40000000000000000000000000000000000C9
:1053E40000000000000000000000000000000000B9
:1053F40000000000000000000000000000000000A9
:105404000000000000000000000000000000000098
:105414000000000000000000000000000000000088
:105424000000000000000000000000000000000078
:105434000000000000000000000000000000000068
:105444000000000000000000010000000000000057
:105454000E33CDAB34126DE6ECDE05000B0000001C
:105464000000000000000000000000000000000038
:105474000000000000000000000000000000000028
:105484000000000000000000000000000000000018
:105494000000000000000000000000000000000008
:1057C4000000000000000000ED510000E9000000AE
:0857D400C1000000000000000C
:00000001FF
